{
  "contractName": "EmailServer",
  "abi": [
    {
      "constant": true,
      "inputs": [],
      "name": "UserCount",
      "outputs": [
        {
          "name": "",
          "type": "uint256"
        }
      ],
      "payable": false,
      "stateMutability": "view",
      "type": "function"
    },
    {
      "constant": true,
      "inputs": [
        {
          "name": "",
          "type": "address"
        }
      ],
      "name": "EmailMapping",
      "outputs": [
        {
          "name": "userName",
          "type": "string"
        }
      ],
      "payable": false,
      "stateMutability": "view",
      "type": "function"
    }
  ],
  "bytecode": "0x608060405234801561001057600080fd5b50610220806100206000396000f30060806040526004361061004c576000357c0100000000000000000000000000000000000000000000000000000000900463ffffffff16806315931724146100515780631bab179c1461007c575b600080fd5b34801561005d57600080fd5b50610066610138565b6040518082815260200191505060405180910390f35b34801561008857600080fd5b506100bd600480360381019080803573ffffffffffffffffffffffffffffffffffffffff16906020019092919050505061013e565b6040518080602001828103825283818151815260200191508051906020019080838360005b838110156100fd5780820151818401526020810190506100e2565b50505050905090810190601f16801561012a5780820380516001836020036101000a031916815260200191505b509250505060405180910390f35b60015481565b6000602052806000526040600020600091509050806000018054600181600116156101000203166002900480601f0160208091040260200160405190810160405280929190818152602001828054600181600116156101000203166002900480156101ea5780601f106101bf576101008083540402835291602001916101ea565b820191906000526020600020905b8154815290600101906020018083116101cd57829003601f168201915b50505050509050815600a165627a7a72305820c0b0cabcce712a224807b23cfda9b37a029c140b5e0edc5d31c4077bc8e27e190029",
  "source": "pragma solidity ^0.4.2;\r\n\r\ncontract EmailServer{\r\n\r\nstruct User{\r\n    string userName;\r\n}\r\n\r\n//Adding a name to address mapping\r\nmapping(address=>User) public EmailMapping;\r\n\r\nuint public UserCount;\r\n\r\nfunction addUser(string userName, address addressId) private{\r\n    UserCount++;\r\n    EmailMapping[addressId]=User(userName);\r\n}\r\n\r\n}\r\n",
  "sourcePath": "D:\\Projects\\etherium\\mailchain\\contracts\\EmailServer.sol",
  "compiler": {
    "name": "solc",
    "version": "0.4.24+commit.e67f0147.Emscripten.clang"
  },
  "schemaVersion": "2.0.1",
  "updatedAt": "2018-10-31T11:05:38.866Z"
}