{
  "contractName": "EmailServer",
  "abi": [
    {
      "constant": true,
      "inputs": [],
      "name": "userCount",
      "outputs": [
        {
          "name": "",
          "type": "uint256"
        }
      ],
      "payable": false,
      "stateMutability": "view",
      "type": "function"
    },
    {
      "anonymous": false,
      "inputs": [
        {
          "indexed": false,
          "name": "from",
          "type": "address"
        },
        {
          "indexed": false,
          "name": "to",
          "type": "address"
        },
        {
          "indexed": false,
          "name": "message",
          "type": "string"
        }
      ],
      "name": "MessageSent",
      "type": "event"
    },
    {
      "constant": false,
      "inputs": [
        {
          "name": "_userName",
          "type": "string"
        }
      ],
      "name": "addUser",
      "outputs": [
        {
          "name": "",
          "type": "uint256"
        }
      ],
      "payable": false,
      "stateMutability": "nonpayable",
      "type": "function"
    },
    {
      "constant": false,
      "inputs": [
        {
          "name": "_userName",
          "type": "string"
        },
        {
          "name": "_message",
          "type": "string"
        }
      ],
      "name": "sendMessage",
      "outputs": [],
      "payable": false,
      "stateMutability": "nonpayable",
      "type": "function"
    }
  ],
  "bytecode": "0x608060405234801561001057600080fd5b5061043f806100206000396000f300608060405260043610610057576000357c0100000000000000000000000000000000000000000000000000000000900463ffffffff16806307973ccf1461005c57806318b8275a14610087578063467fba0f14610104575b600080fd5b34801561006857600080fd5b506100716101b3565b6040518082815260200191505060405180910390f35b34801561009357600080fd5b506100ee600480360381019080803590602001908201803590602001908080601f01602080910402602001604051908101604052809392919081815260200183838082843782019150505050505091929192905050506101b9565b6040518082815260200191505060405180910390f35b34801561011057600080fd5b506101b1600480360381019080803590602001908201803590602001908080601f0160208091040260200160405190810160405280939291908181526020018383808284378201915050505050509192919290803590602001908201803590602001908080601f016020809104026020016040519081016040528093929190818152602001838380828437820191505050505050919291929050505061027b565b005b60025481565b6000600160025401600281905550336000836040518082805190602001908083835b60208310151561020057805182526020820191506020810190506020830392506101db565b6001836020036101000a038019825116818451168082178552505050505050905001915050908152602001604051809103902060006101000a81548173ffffffffffffffffffffffffffffffffffffffff021916908373ffffffffffffffffffffffffffffffffffffffff1602179055506002549050919050565b600080836040518082805190602001908083835b6020831015156102b4578051825260208201915060208101905060208303925061028f565b6001836020036101000a038019825116818451168082178552505050505050905001915050908152602001604051809103902060009054906101000a900473ffffffffffffffffffffffffffffffffffffffff1690507fe2cf7446a11cbcd14cd99ea3a1bb77fb7653a64f4064d660140b5100d001e13c338284604051808473ffffffffffffffffffffffffffffffffffffffff1673ffffffffffffffffffffffffffffffffffffffff1681526020018373ffffffffffffffffffffffffffffffffffffffff1673ffffffffffffffffffffffffffffffffffffffff16815260200180602001828103825283818151815260200191508051906020019080838360005b838110156103d25780820151818401526020810190506103b7565b50505050905090810190601f1680156103ff5780820380516001836020036101000a031916815260200191505b5094505050505060405180910390a15050505600a165627a7a72305820f37bacb054d5210a8909d042b3551fbf3174f2c725c4b02218630967465e4e030029",
  "source": "pragma solidity ^0.4.2;\r\n\r\ncontract EmailServer{\r\n\r\nstruct User {\r\n    string userName;\r\n}\r\n\r\n//Adding a name to address mapping\r\nmapping(string=>address) emailMapping;\r\nmapping(string=>User) userNameMapping;\r\n\r\nuint public userCount;\r\n\r\nevent MessageSent(address from, address to, string message);\r\n\r\nfunction addUser(string _userName) public returns(uint) {\r\n    userCount=userCount+1;\r\n    emailMapping[_userName]=msg.sender;\r\n    return userCount;\r\n}\r\n\r\nfunction sendMessage(string _userName, string _message) public {\r\n  address toAddress=emailMapping[_userName];\r\n  emit MessageSent(msg.sender,toAddress, _message);\r\n}\r\n\r\n}\r\n",
  "sourcePath": "D:\\Projects\\etherium\\mailchain\\contracts\\EmailServer.sol",
  "compiler": {
    "name": "solc",
    "version": "0.4.24+commit.e67f0147.Emscripten.clang"
  },
  "schemaVersion": "2.0.1",
  "updatedAt": "2018-11-27T09:35:07.843Z"
}